{
  "contractName": "gameItems",
  "abi": [
    {
      "inputs": [],
      "stateMutability": "nonpayable",
      "type": "constructor"
    },
    {
      "anonymous": false,
      "inputs": [
        {
          "indexed": true,
          "internalType": "address",
          "name": "account",
          "type": "address"
        },
        {
          "indexed": true,
          "internalType": "address",
          "name": "operator",
          "type": "address"
        },
        {
          "indexed": false,
          "internalType": "bool",
          "name": "approved",
          "type": "bool"
        }
      ],
      "name": "ApprovalForAll",
      "type": "event"
    },
    {
      "anonymous": false,
      "inputs": [
        {
          "indexed": true,
          "internalType": "address",
          "name": "operator",
          "type": "address"
        },
        {
          "indexed": true,
          "internalType": "address",
          "name": "from",
          "type": "address"
        },
        {
          "indexed": true,
          "internalType": "address",
          "name": "to",
          "type": "address"
        },
        {
          "indexed": false,
          "internalType": "uint256[]",
          "name": "ids",
          "type": "uint256[]"
        },
        {
          "indexed": false,
          "internalType": "uint256[]",
          "name": "values",
          "type": "uint256[]"
        }
      ],
      "name": "TransferBatch",
      "type": "event"
    },
    {
      "anonymous": false,
      "inputs": [
        {
          "indexed": true,
          "internalType": "address",
          "name": "operator",
          "type": "address"
        },
        {
          "indexed": true,
          "internalType": "address",
          "name": "from",
          "type": "address"
        },
        {
          "indexed": true,
          "internalType": "address",
          "name": "to",
          "type": "address"
        },
        {
          "indexed": false,
          "internalType": "uint256",
          "name": "id",
          "type": "uint256"
        },
        {
          "indexed": false,
          "internalType": "uint256",
          "name": "value",
          "type": "uint256"
        }
      ],
      "name": "TransferSingle",
      "type": "event"
    },
    {
      "anonymous": false,
      "inputs": [
        {
          "indexed": false,
          "internalType": "string",
          "name": "value",
          "type": "string"
        },
        {
          "indexed": true,
          "internalType": "uint256",
          "name": "id",
          "type": "uint256"
        }
      ],
      "name": "URI",
      "type": "event"
    },
    {
      "inputs": [
        {
          "internalType": "address",
          "name": "account",
          "type": "address"
        },
        {
          "internalType": "uint256",
          "name": "id",
          "type": "uint256"
        }
      ],
      "name": "balanceOf",
      "outputs": [
        {
          "internalType": "uint256",
          "name": "",
          "type": "uint256"
        }
      ],
      "stateMutability": "view",
      "type": "function"
    },
    {
      "inputs": [
        {
          "internalType": "address[]",
          "name": "accounts",
          "type": "address[]"
        },
        {
          "internalType": "uint256[]",
          "name": "ids",
          "type": "uint256[]"
        }
      ],
      "name": "balanceOfBatch",
      "outputs": [
        {
          "internalType": "uint256[]",
          "name": "",
          "type": "uint256[]"
        }
      ],
      "stateMutability": "view",
      "type": "function"
    },
    {
      "inputs": [
        {
          "internalType": "address",
          "name": "account",
          "type": "address"
        },
        {
          "internalType": "address",
          "name": "operator",
          "type": "address"
        }
      ],
      "name": "isApprovedForAll",
      "outputs": [
        {
          "internalType": "bool",
          "name": "",
          "type": "bool"
        }
      ],
      "stateMutability": "view",
      "type": "function"
    },
    {
      "inputs": [
        {
          "internalType": "address",
          "name": "from",
          "type": "address"
        },
        {
          "internalType": "address",
          "name": "to",
          "type": "address"
        },
        {
          "internalType": "uint256[]",
          "name": "ids",
          "type": "uint256[]"
        },
        {
          "internalType": "uint256[]",
          "name": "amounts",
          "type": "uint256[]"
        },
        {
          "internalType": "bytes",
          "name": "data",
          "type": "bytes"
        }
      ],
      "name": "safeBatchTransferFrom",
      "outputs": [],
      "stateMutability": "nonpayable",
      "type": "function"
    },
    {
      "inputs": [
        {
          "internalType": "address",
          "name": "from",
          "type": "address"
        },
        {
          "internalType": "address",
          "name": "to",
          "type": "address"
        },
        {
          "internalType": "uint256",
          "name": "id",
          "type": "uint256"
        },
        {
          "internalType": "uint256",
          "name": "amount",
          "type": "uint256"
        },
        {
          "internalType": "bytes",
          "name": "data",
          "type": "bytes"
        }
      ],
      "name": "safeTransferFrom",
      "outputs": [],
      "stateMutability": "nonpayable",
      "type": "function"
    },
    {
      "inputs": [
        {
          "internalType": "address",
          "name": "operator",
          "type": "address"
        },
        {
          "internalType": "bool",
          "name": "approved",
          "type": "bool"
        }
      ],
      "name": "setApprovalForAll",
      "outputs": [],
      "stateMutability": "nonpayable",
      "type": "function"
    },
    {
      "inputs": [
        {
          "internalType": "bytes4",
          "name": "interfaceId",
          "type": "bytes4"
        }
      ],
      "name": "supportsInterface",
      "outputs": [
        {
          "internalType": "bool",
          "name": "",
          "type": "bool"
        }
      ],
      "stateMutability": "view",
      "type": "function"
    },
    {
      "inputs": [
        {
          "internalType": "uint256",
          "name": "",
          "type": "uint256"
        }
      ],
      "name": "uri",
      "outputs": [
        {
          "internalType": "string",
          "name": "",
          "type": "string"
        }
      ],
      "stateMutability": "view",
      "type": "function"
    },
    {
      "inputs": [
        {
          "internalType": "address",
          "name": "to",
          "type": "address"
        },
        {
          "internalType": "uint256",
          "name": "id",
          "type": "uint256"
        },
        {
          "internalType": "uint256",
          "name": "amount",
          "type": "uint256"
        }
      ],
      "name": "mint",
      "outputs": [],
      "stateMutability": "nonpayable",
      "type": "function"
    }
  ],
  "bytecode": "0x60806040523480156200001157600080fd5b506040518060200160405280600081525062000033816200007b60201b60201c565b5033600360006101000a81548173ffffffffffffffffffffffffffffffffffffffff021916908373ffffffffffffffffffffffffffffffffffffffff160217905550620003f1565b80600290816200008c91906200030a565b5050565b600081519050919050565b7f4e487b7100000000000000000000000000000000000000000000000000000000600052604160045260246000fd5b7f4e487b7100000000000000000000000000000000000000000000000000000000600052602260045260246000fd5b600060028204905060018216806200011257607f821691505b602082108103620001285762000127620000ca565b5b50919050565b60008190508160005260206000209050919050565b60006020601f8301049050919050565b600082821b905092915050565b600060088302620001927fffffffffffffffffffffffffffffffffffffffffffffffffffffffffffffffff8262000153565b6200019e868362000153565b95508019841693508086168417925050509392505050565b6000819050919050565b6000819050919050565b6000620001eb620001e5620001df84620001b6565b620001c0565b620001b6565b9050919050565b6000819050919050565b6200020783620001ca565b6200021f6200021682620001f2565b84845462000160565b825550505050565b600090565b6200023662000227565b62000243818484620001fc565b505050565b5b818110156200026b576200025f6000826200022c565b60018101905062000249565b5050565b601f821115620002ba5762000284816200012e565b6200028f8462000143565b810160208510156200029f578190505b620002b7620002ae8562000143565b83018262000248565b50505b505050565b600082821c905092915050565b6000620002df60001984600802620002bf565b1980831691505092915050565b6000620002fa8383620002cc565b9150826002028217905092915050565b620003158262000090565b67ffffffffffffffff8111156200033157620003306200009b565b5b6200033d8254620000f9565b6200034a8282856200026f565b600060209050601f8311600181146200038257600084156200036d578287015190505b620003798582620002ec565b865550620003e9565b601f19841662000392866200012e565b60005b82811015620003bc5784890151825560018201915060208501945060208101905062000395565b86831015620003dc5784890151620003d8601f891682620002cc565b8355505b6001600288020188555050505b505050505050565b6128cf80620004016000396000f3fe608060405234801561001057600080fd5b50600436106100925760003560e01c80632eb2c2d6116100665780632eb2c2d6146101435780634e1273f41461015f578063a22cb4651461018f578063e985e9c5146101ab578063f242432a146101db57610092565b8062fdd58e1461009757806301ffc9a7146100c75780630e89341c146100f7578063156e29f614610127575b600080fd5b6100b160048036038101906100ac9190611637565b6101f7565b6040516100be9190611686565b60405180910390f35b6100e160048036038101906100dc91906116f9565b6102bf565b6040516100ee9190611741565b60405180910390f35b610111600480360381019061010c919061175c565b6103a1565b60405161011e9190611819565b60405180910390f35b610141600480360381019061013c919061183b565b610435565b005b61015d60048036038101906101589190611a8b565b6104e5565b005b61017960048036038101906101749190611c1d565b610586565b6040516101869190611d53565b60405180910390f35b6101a960048036038101906101a49190611da1565b61069f565b005b6101c560048036038101906101c09190611de1565b6106b5565b6040516101d29190611741565b60405180910390f35b6101f560048036038101906101f09190611e21565b610749565b005b60008073ffffffffffffffffffffffffffffffffffffffff168373ffffffffffffffffffffffffffffffffffffffff1603610267576040517f08c379a000000000000000000000000000000000000000000000000000000000815260040161025e90611f2a565b60405180910390fd5b60008083815260200190815260200160002060008473ffffffffffffffffffffffffffffffffffffffff1673ffffffffffffffffffffffffffffffffffffffff16815260200190815260200160002054905092915050565b60007fd9b67a26000000000000000000000000000000000000000000000000000000007bffffffffffffffffffffffffffffffffffffffffffffffffffffffff1916827bffffffffffffffffffffffffffffffffffffffffffffffffffffffff1916148061038a57507f0e89341c000000000000000000000000000000000000000000000000000000007bffffffffffffffffffffffffffffffffffffffffffffffffffffffff1916827bffffffffffffffffffffffffffffffffffffffffffffffffffffffff1916145b8061039a5750610399826107ea565b5b9050919050565b6060600280546103b090611f79565b80601f01602080910402602001604051908101604052809291908181526020018280546103dc90611f79565b80156104295780601f106103fe57610100808354040283529160200191610429565b820191906000526020600020905b81548152906001019060200180831161040c57829003601f168201915b50505050509050919050565b600360009054906101000a900473ffffffffffffffffffffffffffffffffffffffff1673ffffffffffffffffffffffffffffffffffffffff163373ffffffffffffffffffffffffffffffffffffffff16146104c5576040517f08c379a00000000000000000000000000000000000000000000000000000000081526004016104bc90611ff6565b60405180910390fd5b6104e083838360405180602001604052806000815250610854565b505050565b6104ed610a04565b73ffffffffffffffffffffffffffffffffffffffff168573ffffffffffffffffffffffffffffffffffffffff16148061053357506105328561052d610a04565b6106b5565b5b610572576040517f08c379a000000000000000000000000000000000000000000000000000000000815260040161056990612088565b60405180910390fd5b61057f8585858585610a0c565b5050505050565b606081518351146105cc576040517f08c379a00000000000000000000000000000000000000000000000000000000081526004016105c39061211a565b60405180910390fd5b6000835167ffffffffffffffff8111156105e9576105e8611893565b5b6040519080825280602002602001820160405280156106175781602001602082028036833780820191505090505b50905060005b84518110156106945761066485828151811061063c5761063b61213a565b5b60200260200101518583815181106106575761065661213a565b5b60200260200101516101f7565b8282815181106106775761067661213a565b5b6020026020010181815250508061068d90612198565b905061061d565b508091505092915050565b6106b16106aa610a04565b8383610d2d565b5050565b6000600160008473ffffffffffffffffffffffffffffffffffffffff1673ffffffffffffffffffffffffffffffffffffffff16815260200190815260200160002060008373ffffffffffffffffffffffffffffffffffffffff1673ffffffffffffffffffffffffffffffffffffffff16815260200190815260200160002060009054906101000a900460ff16905092915050565b610751610a04565b73ffffffffffffffffffffffffffffffffffffffff168573ffffffffffffffffffffffffffffffffffffffff161480610797575061079685610791610a04565b6106b5565b5b6107d6576040517f08c379a00000000000000000000000000000000000000000000000000000000081526004016107cd90612088565b60405180910390fd5b6107e38585858585610e99565b5050505050565b60007f01ffc9a7000000000000000000000000000000000000000000000000000000007bffffffffffffffffffffffffffffffffffffffffffffffffffffffff1916827bffffffffffffffffffffffffffffffffffffffffffffffffffffffff1916149050919050565b600073ffffffffffffffffffffffffffffffffffffffff168473ffffffffffffffffffffffffffffffffffffffff16036108c3576040517f08c379a00000000000000000000000000000000000000000000000000000000081526004016108ba90612252565b60405180910390fd5b60006108cd610a04565b905060006108da85611134565b905060006108e785611134565b90506108f8836000898585896111ae565b8460008088815260200190815260200160002060008973ffffffffffffffffffffffffffffffffffffffff1673ffffffffffffffffffffffffffffffffffffffff16815260200190815260200160002060008282546109579190612272565b925050819055508673ffffffffffffffffffffffffffffffffffffffff16600073ffffffffffffffffffffffffffffffffffffffff168473ffffffffffffffffffffffffffffffffffffffff167fc3d58168c5ae7397731d063d5bbf3d657854427343f4c083240f7aacaa2d0f6289896040516109d59291906122a6565b60405180910390a46109ec836000898585896111b6565b6109fb836000898989896111be565b50505050505050565b600033905090565b8151835114610a50576040517f08c379a0000000000000000000000000000000000000000000000000000000008152600401610a4790612341565b60405180910390fd5b600073ffffffffffffffffffffffffffffffffffffffff168473ffffffffffffffffffffffffffffffffffffffff1603610abf576040517f08c379a0000000000000000000000000000000000000000000000000000000008152600401610ab6906123d3565b60405180910390fd5b6000610ac9610a04565b9050610ad98187878787876111ae565b60005b8451811015610c8a576000858281518110610afa57610af961213a565b5b602002602001015190506000858381518110610b1957610b1861213a565b5b60200260200101519050600080600084815260200190815260200160002060008b73ffffffffffffffffffffffffffffffffffffffff1673ffffffffffffffffffffffffffffffffffffffff16815260200190815260200160002054905081811015610bba576040517f08c379a0000000000000000000000000000000000000000000000000000000008152600401610bb190612465565b60405180910390fd5b81810360008085815260200190815260200160002060008c73ffffffffffffffffffffffffffffffffffffffff1673ffffffffffffffffffffffffffffffffffffffff168152602001908152602001600020819055508160008085815260200190815260200160002060008b73ffffffffffffffffffffffffffffffffffffffff1673ffffffffffffffffffffffffffffffffffffffff1681526020019081526020016000206000828254610c6f9190612272565b9250508190555050505080610c8390612198565b9050610adc565b508473ffffffffffffffffffffffffffffffffffffffff168673ffffffffffffffffffffffffffffffffffffffff168273ffffffffffffffffffffffffffffffffffffffff167f4a39dc06d4c0dbc64b70af90fd698a233a518aa5d07e595d983b8c0526c8f7fb8787604051610d01929190612485565b60405180910390a4610d178187878787876111b6565b610d25818787878787611395565b505050505050565b8173ffffffffffffffffffffffffffffffffffffffff168373ffffffffffffffffffffffffffffffffffffffff1603610d9b576040517f08c379a0000000000000000000000000000000000000000000000000000000008152600401610d929061252e565b60405180910390fd5b80600160008573ffffffffffffffffffffffffffffffffffffffff1673ffffffffffffffffffffffffffffffffffffffff16815260200190815260200160002060008473ffffffffffffffffffffffffffffffffffffffff1673ffffffffffffffffffffffffffffffffffffffff16815260200190815260200160002060006101000a81548160ff0219169083151502179055508173ffffffffffffffffffffffffffffffffffffffff168373ffffffffffffffffffffffffffffffffffffffff167f17307eab39ab6107e8899845ad3d59bd9653f200f220920489ca2b5937696c3183604051610e8c9190611741565b60405180910390a3505050565b600073ffffffffffffffffffffffffffffffffffffffff168473ffffffffffffffffffffffffffffffffffffffff1603610f08576040517f08c379a0000000000000000000000000000000000000000000000000000000008152600401610eff906123d3565b60405180910390fd5b6000610f12610a04565b90506000610f1f85611134565b90506000610f2c85611134565b9050610f3c8389898585896111ae565b600080600088815260200190815260200160002060008a73ffffffffffffffffffffffffffffffffffffffff1673ffffffffffffffffffffffffffffffffffffffff16815260200190815260200160002054905085811015610fd3576040517f08c379a0000000000000000000000000000000000000000000000000000000008152600401610fca90612465565b60405180910390fd5b85810360008089815260200190815260200160002060008b73ffffffffffffffffffffffffffffffffffffffff1673ffffffffffffffffffffffffffffffffffffffff168152602001908152602001600020819055508560008089815260200190815260200160002060008a73ffffffffffffffffffffffffffffffffffffffff1673ffffffffffffffffffffffffffffffffffffffff16815260200190815260200160002060008282546110889190612272565b925050819055508773ffffffffffffffffffffffffffffffffffffffff168973ffffffffffffffffffffffffffffffffffffffff168573ffffffffffffffffffffffffffffffffffffffff167fc3d58168c5ae7397731d063d5bbf3d657854427343f4c083240f7aacaa2d0f628a8a6040516111059291906122a6565b60405180910390a461111b848a8a86868a6111b6565b611129848a8a8a8a8a6111be565b505050505050505050565b60606000600167ffffffffffffffff81111561115357611152611893565b5b6040519080825280602002602001820160405280156111815781602001602082028036833780820191505090505b50905082816000815181106111995761119861213a565b5b60200260200101818152505080915050919050565b505050505050565b505050505050565b6111dd8473ffffffffffffffffffffffffffffffffffffffff1661156c565b1561138d578373ffffffffffffffffffffffffffffffffffffffff1663f23a6e6187878686866040518663ffffffff1660e01b81526004016112239594939291906125b2565b6020604051808303816000875af192505050801561125f57506040513d601f19601f8201168201806040525081019061125c9190612621565b60015b6113045761126b61265b565b806308c379a0036112c7575061127f61267d565b8061128a57506112c9565b806040517f08c379a00000000000000000000000000000000000000000000000000000000081526004016112be9190611819565b60405180910390fd5b505b6040517f08c379a00000000000000000000000000000000000000000000000000000000081526004016112fb9061277f565b60405180910390fd5b63f23a6e6160e01b7bffffffffffffffffffffffffffffffffffffffffffffffffffffffff1916817bffffffffffffffffffffffffffffffffffffffffffffffffffffffff19161461138b576040517f08c379a000000000000000000000000000000000000000000000000000000000815260040161138290612811565b60405180910390fd5b505b505050505050565b6113b48473ffffffffffffffffffffffffffffffffffffffff1661156c565b15611564578373ffffffffffffffffffffffffffffffffffffffff1663bc197c8187878686866040518663ffffffff1660e01b81526004016113fa959493929190612831565b6020604051808303816000875af192505050801561143657506040513d601f19601f820116820180604052508101906114339190612621565b60015b6114db5761144261265b565b806308c379a00361149e575061145661267d565b8061146157506114a0565b806040517f08c379a00000000000000000000000000000000000000000000000000000000081526004016114959190611819565b60405180910390fd5b505b6040517f08c379a00000000000000000000000000000000000000000000000000000000081526004016114d29061277f565b60405180910390fd5b63bc197c8160e01b7bffffffffffffffffffffffffffffffffffffffffffffffffffffffff1916817bffffffffffffffffffffffffffffffffffffffffffffffffffffffff191614611562576040517f08c379a000000000000000000000000000000000000000000000000000000000815260040161155990612811565b60405180910390fd5b505b505050505050565b6000808273ffffffffffffffffffffffffffffffffffffffff163b119050919050565b6000604051905090565b600080fd5b600080fd5b600073ffffffffffffffffffffffffffffffffffffffff82169050919050565b60006115ce826115a3565b9050919050565b6115de816115c3565b81146115e957600080fd5b50565b6000813590506115fb816115d5565b92915050565b6000819050919050565b61161481611601565b811461161f57600080fd5b50565b6000813590506116318161160b565b92915050565b6000806040838503121561164e5761164d611599565b5b600061165c858286016115ec565b925050602061166d85828601611622565b9150509250929050565b61168081611601565b82525050565b600060208201905061169b6000830184611677565b92915050565b60007fffffffff0000000000000000000000000000000000000000000000000000000082169050919050565b6116d6816116a1565b81146116e157600080fd5b50565b6000813590506116f3816116cd565b92915050565b60006020828403121561170f5761170e611599565b5b600061171d848285016116e4565b91505092915050565b60008115159050919050565b61173b81611726565b82525050565b60006020820190506117566000830184611732565b92915050565b60006020828403121561177257611771611599565b5b600061178084828501611622565b91505092915050565b600081519050919050565b600082825260208201905092915050565b60005b838110156117c35780820151818401526020810190506117a8565b60008484015250505050565b6000601f19601f8301169050919050565b60006117eb82611789565b6117f58185611794565b93506118058185602086016117a5565b61180e816117cf565b840191505092915050565b6000602082019050818103600083015261183381846117e0565b905092915050565b60008060006060848603121561185457611853611599565b5b6000611862868287016115ec565b935050602061187386828701611622565b925050604061188486828701611622565b9150509250925092565b600080fd5b7f4e487b7100000000000000000000000000000000000000000000000000000000600052604160045260246000fd5b6118cb826117cf565b810181811067ffffffffffffffff821117156118ea576118e9611893565b5b80604052505050565b60006118fd61158f565b905061190982826118c2565b919050565b600067ffffffffffffffff82111561192957611928611893565b5b602082029050602081019050919050565b600080fd5b600061195261194d8461190e565b6118f3565b905080838252602082019050602084028301858111156119755761197461193a565b5b835b8181101561199e578061198a8882611622565b845260208401935050602081019050611977565b5050509392505050565b600082601f8301126119bd576119bc61188e565b5b81356119cd84826020860161193f565b91505092915050565b600080fd5b600067ffffffffffffffff8211156119f6576119f5611893565b5b6119ff826117cf565b9050602081019050919050565b82818337600083830152505050565b6000611a2e611a29846119db565b6118f3565b905082815260208101848484011115611a4a57611a496119d6565b5b611a55848285611a0c565b509392505050565b600082601f830112611a7257611a7161188e565b5b8135611a82848260208601611a1b565b91505092915050565b600080600080600060a08688031215611aa757611aa6611599565b5b6000611ab5888289016115ec565b9550506020611ac6888289016115ec565b945050604086013567ffffffffffffffff811115611ae757611ae661159e565b5b611af3888289016119a8565b935050606086013567ffffffffffffffff811115611b1457611b1361159e565b5b611b20888289016119a8565b925050608086013567ffffffffffffffff811115611b4157611b4061159e565b5b611b4d88828901611a5d565b9150509295509295909350565b600067ffffffffffffffff821115611b7557611b74611893565b5b602082029050602081019050919050565b6000611b99611b9484611b5a565b6118f3565b90508083825260208201905060208402830185811115611bbc57611bbb61193a565b5b835b81811015611be55780611bd188826115ec565b845260208401935050602081019050611bbe565b5050509392505050565b600082601f830112611c0457611c0361188e565b5b8135611c14848260208601611b86565b91505092915050565b60008060408385031215611c3457611c33611599565b5b600083013567ffffffffffffffff811115611c5257611c5161159e565b5b611c5e85828601611bef565b925050602083013567ffffffffffffffff811115611c7f57611c7e61159e565b5b611c8b858286016119a8565b9150509250929050565b600081519050919050565b600082825260208201905092915050565b6000819050602082019050919050565b611cca81611601565b82525050565b6000611cdc8383611cc1565b60208301905092915050565b6000602082019050919050565b6000611d0082611c95565b611d0a8185611ca0565b9350611d1583611cb1565b8060005b83811015611d46578151611d2d8882611cd0565b9750611d3883611ce8565b925050600181019050611d19565b5085935050505092915050565b60006020820190508181036000830152611d6d8184611cf5565b905092915050565b611d7e81611726565b8114611d8957600080fd5b50565b600081359050611d9b81611d75565b92915050565b60008060408385031215611db857611db7611599565b5b6000611dc6858286016115ec565b9250506020611dd785828601611d8c565b9150509250929050565b60008060408385031215611df857611df7611599565b5b6000611e06858286016115ec565b9250506020611e17858286016115ec565b9150509250929050565b600080600080600060a08688031215611e3d57611e3c611599565b5b6000611e4b888289016115ec565b9550506020611e5c888289016115ec565b9450506040611e6d88828901611622565b9350506060611e7e88828901611622565b925050608086013567ffffffffffffffff811115611e9f57611e9e61159e565b5b611eab88828901611a5d565b9150509295509295909350565b7f455243313135353a2061646472657373207a65726f206973206e6f742061207660008201527f616c6964206f776e657200000000000000000000000000000000000000000000602082015250565b6000611f14602a83611794565b9150611f1f82611eb8565b604082019050919050565b60006020820190508181036000830152611f4381611f07565b9050919050565b7f4e487b7100000000000000000000000000000000000000000000000000000000600052602260045260246000fd5b60006002820490506001821680611f9157607f821691505b602082108103611fa457611fa3611f4a565b5b50919050565b7f4f4e4c595f4f574e455200000000000000000000000000000000000000000000600082015250565b6000611fe0600a83611794565b9150611feb82611faa565b602082019050919050565b6000602082019050818103600083015261200f81611fd3565b9050919050565b7f455243313135353a2063616c6c6572206973206e6f7420746f6b656e206f776e60008201527f6572206e6f7220617070726f7665640000000000000000000000000000000000602082015250565b6000612072602f83611794565b915061207d82612016565b604082019050919050565b600060208201905081810360008301526120a181612065565b9050919050565b7f455243313135353a206163636f756e747320616e6420696473206c656e67746860008201527f206d69736d617463680000000000000000000000000000000000000000000000602082015250565b6000612104602983611794565b915061210f826120a8565b604082019050919050565b60006020820190508181036000830152612133816120f7565b9050919050565b7f4e487b7100000000000000000000000000000000000000000000000000000000600052603260045260246000fd5b7f4e487b7100000000000000000000000000000000000000000000000000000000600052601160045260246000fd5b60006121a382611601565b91507fffffffffffffffffffffffffffffffffffffffffffffffffffffffffffffffff82036121d5576121d4612169565b5b600182019050919050565b7f455243313135353a206d696e7420746f20746865207a65726f2061646472657360008201527f7300000000000000000000000000000000000000000000000000000000000000602082015250565b600061223c602183611794565b9150612247826121e0565b604082019050919050565b6000602082019050818103600083015261226b8161222f565b9050919050565b600061227d82611601565b915061228883611601565b92508282019050808211156122a05761229f612169565b5b92915050565b60006040820190506122bb6000830185611677565b6122c86020830184611677565b9392505050565b7f455243313135353a2069647320616e6420616d6f756e7473206c656e6774682060008201527f6d69736d61746368000000000000000000000000000000000000000000000000602082015250565b600061232b602883611794565b9150612336826122cf565b604082019050919050565b6000602082019050818103600083015261235a8161231e565b9050919050565b7f455243313135353a207472616e7366657220746f20746865207a65726f20616460008201527f6472657373000000000000000000000000000000000000000000000000000000602082015250565b60006123bd602583611794565b91506123c882612361565b604082019050919050565b600060208201905081810360008301526123ec816123b0565b9050919050565b7f455243313135353a20696e73756666696369656e742062616c616e636520666f60008201527f72207472616e7366657200000000000000000000000000000000000000000000602082015250565b600061244f602a83611794565b915061245a826123f3565b604082019050919050565b6000602082019050818103600083015261247e81612442565b9050919050565b6000604082019050818103600083015261249f8185611cf5565b905081810360208301526124b38184611cf5565b90509392505050565b7f455243313135353a2073657474696e6720617070726f76616c2073746174757360008201527f20666f722073656c660000000000000000000000000000000000000000000000602082015250565b6000612518602983611794565b9150612523826124bc565b604082019050919050565b600060208201905081810360008301526125478161250b565b9050919050565b612557816115c3565b82525050565b600081519050919050565b600082825260208201905092915050565b60006125848261255d565b61258e8185612568565b935061259e8185602086016117a5565b6125a7816117cf565b840191505092915050565b600060a0820190506125c7600083018861254e565b6125d4602083018761254e565b6125e16040830186611677565b6125ee6060830185611677565b81810360808301526126008184612579565b90509695505050505050565b60008151905061261b816116cd565b92915050565b60006020828403121561263757612636611599565b5b60006126458482850161260c565b91505092915050565b60008160e01c9050919050565b600060033d111561267a5760046000803e61267760005161264e565b90505b90565b600060443d1061270a5761268f61158f565b60043d036004823e80513d602482011167ffffffffffffffff821117156126b757505061270a565b808201805167ffffffffffffffff8111156126d5575050505061270a565b80602083010160043d0385018111156126f257505050505061270a565b612701826020018501866118c2565b82955050505050505b90565b7f455243313135353a207472616e7366657220746f206e6f6e204552433131353560008201527f526563656976657220696d706c656d656e746572000000000000000000000000602082015250565b6000612769603483611794565b91506127748261270d565b604082019050919050565b600060208201905081810360008301526127988161275c565b9050919050565b7f455243313135353a204552433131353552656365697665722072656a6563746560008201527f6420746f6b656e73000000000000000000000000000000000000000000000000602082015250565b60006127fb602883611794565b91506128068261279f565b604082019050919050565b6000602082019050818103600083015261282a816127ee565b9050919050565b600060a082019050612846600083018861254e565b612853602083018761254e565b81810360408301526128658186611cf5565b905081810360608301526128798185611cf5565b9050818103608083015261288d8184612579565b9050969550505050505056fea2646970667358221220e46967a40504e306f2172bb64ae53f7bd21a8d99af11bd18ab3e679d640e8f0064736f6c63430008110033",
  "immutableReferences": {},
  "source": "pragma solidity ^0.8.0;\nimport \"../node_modules/@openzeppelin/contracts/token/ERC1155/ERC1155.sol\";\n\ncontract gameItems is ERC1155 {\n    address private _owner;\n\n    constructor() ERC1155(\"\") {\n        _owner = msg.sender;\n    }\n\n    function mint(\n        address to,\n        uint256 id,\n        uint256 amount\n    ) public {\n        require(msg.sender == _owner, \"ONLY_OWNER\");\n        _mint(to, id, amount, \"\");\n    }\n}\n",
  "sourcePath": "/home/xabier/Documentos/eth-game-programming/contracts/gameItems.sol",
  "compiler": {
    "name": "solc",
    "version": "0.8.17+commit.8df45f5f.Emscripten.clang"
  },
  "schemaVersion": "3.4.10",
  "updatedAt": "2022-11-08T19:13:15.061Z",
  "devdoc": {
    "kind": "dev",
    "methods": {
      "balanceOf(address,uint256)": {
        "details": "See {IERC1155-balanceOf}. Requirements: - `account` cannot be the zero address."
      },
      "balanceOfBatch(address[],uint256[])": {
        "details": "See {IERC1155-balanceOfBatch}. Requirements: - `accounts` and `ids` must have the same length."
      },
      "isApprovedForAll(address,address)": {
        "details": "See {IERC1155-isApprovedForAll}."
      },
      "safeBatchTransferFrom(address,address,uint256[],uint256[],bytes)": {
        "details": "See {IERC1155-safeBatchTransferFrom}."
      },
      "safeTransferFrom(address,address,uint256,uint256,bytes)": {
        "details": "See {IERC1155-safeTransferFrom}."
      },
      "setApprovalForAll(address,bool)": {
        "details": "See {IERC1155-setApprovalForAll}."
      },
      "supportsInterface(bytes4)": {
        "details": "See {IERC165-supportsInterface}."
      },
      "uri(uint256)": {
        "details": "See {IERC1155MetadataURI-uri}. This implementation returns the same URI for *all* token types. It relies on the token type ID substitution mechanism https://eips.ethereum.org/EIPS/eip-1155#metadata[defined in the EIP]. Clients calling this function must replace the `\\{id\\}` substring with the actual token type ID."
      }
    },
    "version": 1
  },
  "userdoc": {
    "kind": "user",
    "methods": {},
    "version": 1
  }
}