{
  "contractName": "Marketplace",
  "abi": [
    {
      "inputs": [
        {
          "internalType": "address",
          "name": "_tokenAddress",
          "type": "address"
        }
      ],
      "stateMutability": "nonpayable",
      "type": "constructor"
    },
    {
      "stateMutability": "payable",
      "type": "fallback"
    },
    {
      "inputs": [
        {
          "internalType": "uint256",
          "name": "tokenId",
          "type": "uint256"
        }
      ],
      "name": "buyToken",
      "outputs": [],
      "stateMutability": "payable",
      "type": "function"
    },
    {
      "inputs": [
        {
          "internalType": "address",
          "name": "_operator",
          "type": "address"
        },
        {
          "internalType": "address",
          "name": "_from",
          "type": "address"
        },
        {
          "internalType": "uint256",
          "name": "_id",
          "type": "uint256"
        },
        {
          "internalType": "uint256",
          "name": "_value",
          "type": "uint256"
        },
        {
          "internalType": "bytes32",
          "name": "_data",
          "type": "bytes32"
        }
      ],
      "name": "onERC1155Received",
      "outputs": [
        {
          "internalType": "bytes4",
          "name": "",
          "type": "bytes4"
        }
      ],
      "stateMutability": "view",
      "type": "function"
    }
  ],
  "bytecode": "0x608060405234801561001057600080fd5b506040516106b23803806106b283398181016040528101906100329190610138565b806000806101000a81548173ffffffffffffffffffffffffffffffffffffffff021916908373ffffffffffffffffffffffffffffffffffffffff160217905550655af3107a4000600160006001815260200190815260200160002081905550655af3107a4000600160006002815260200190815260200160002081905550655af3107a400060016000600381526020019081526020016000208190555050610165565b600080fd5b600073ffffffffffffffffffffffffffffffffffffffff82169050919050565b6000610105826100da565b9050919050565b610115816100fa565b811461012057600080fd5b50565b6000815190506101328161010c565b92915050565b60006020828403121561014e5761014d6100d5565b5b600061015c84828501610123565b91505092915050565b61053e806101746000396000f3fe60806040526004361061002d5760003560e01c80632d296bf11461003a5780639a5ff502146100565761002e565b5b6100386001610093565b005b610054600480360381019061004f9190610207565b610093565b005b34801561006257600080fd5b5061007d600480360381019061007891906102c8565b61019e565b60405161008a919061037e565b60405180910390f35b600160008281526020019081526020016000205434101580156100ca57506000600160008381526020019081526020016000205414155b610109576040517f08c379a0000000000000000000000000000000000000000000000000000000008152600401610100906103f6565b60405180910390fd5b60008054906101000a900473ffffffffffffffffffffffffffffffffffffffff1673ffffffffffffffffffffffffffffffffffffffff1663f242432a30338460016040518563ffffffff1660e01b815260040161016994939291906104b0565b600060405180830381600087803b15801561018357600080fd5b505af1158015610197573d6000803e3d6000fd5b5050505050565b60007f3c77618052eba6d69cd5853e4819fe4ca48c6958f58d7b32b1ff593e1518ecc8905095945050505050565b600080fd5b6000819050919050565b6101e4816101d1565b81146101ef57600080fd5b50565b600081359050610201816101db565b92915050565b60006020828403121561021d5761021c6101cc565b5b600061022b848285016101f2565b91505092915050565b600073ffffffffffffffffffffffffffffffffffffffff82169050919050565b600061025f82610234565b9050919050565b61026f81610254565b811461027a57600080fd5b50565b60008135905061028c81610266565b92915050565b6000819050919050565b6102a581610292565b81146102b057600080fd5b50565b6000813590506102c28161029c565b92915050565b600080600080600060a086880312156102e4576102e36101cc565b5b60006102f28882890161027d565b95505060206103038882890161027d565b9450506040610314888289016101f2565b9350506060610325888289016101f2565b9250506080610336888289016102b3565b9150509295509295909350565b60007fffffffff0000000000000000000000000000000000000000000000000000000082169050919050565b61037881610343565b82525050565b6000602082019050610393600083018461036f565b92915050565b600082825260208201905092915050565b7f6574683c70726963650000000000000000000000000000000000000000000000600082015250565b60006103e0600983610399565b91506103eb826103aa565b602082019050919050565b6000602082019050818103600083015261040f816103d3565b9050919050565b61041f81610254565b82525050565b61042e816101d1565b82525050565b6000819050919050565b6000819050919050565b600061046361045e61045984610434565b61043e565b6101d1565b9050919050565b61047381610448565b82525050565b600082825260208201905092915050565b50565b600061049a600083610479565b91506104a58261048a565b600082019050919050565b600060a0820190506104c56000830187610416565b6104d26020830186610416565b6104df6040830185610425565b6104ec606083018461046a565b81810360808301526104fd8161048d565b90509594505050505056fea264697066735822122025c5763c47fb9e5da58cc5a1d2cba469499ba79a596ee9103d201314bd4b6add64736f6c63430008110033",
  "immutableReferences": {},
  "source": "pragma solidity ^0.8.0;\nimport \"../node_modules/@openzeppelin/contracts/token/ERC1155/IERC1155.sol\";\n\ncontract Marketplace {\n    IERC1155 private _token;\n    mapping(uint256 => uint256) private _prices;\n\n    constructor(address _tokenAddress) {\n        _token = IERC1155(_tokenAddress);\n        _prices[1] = 1e14;\n        _prices[2] = 1e14;\n        _prices[3] = 1e14;\n    }\n\n    function buyToken(uint256 tokenId) public payable {\n        require(\n            msg.value >= _prices[tokenId] && _prices[tokenId] != 0,\n            \"eth<price\"\n        );\n        _token.safeTransferFrom(address(this), msg.sender, tokenId, 1, \"\");\n    }\n\n    fallback() external payable {\n        buyToken(1);\n    }\n\n    function onERC1155Received(\n        address _operator,\n        address _from,\n        uint256 _id,\n        uint256 _value,\n        bytes32 _data\n    ) public view returns (bytes4) {\n        return\n            bytes4(\n                keccak256(\n                    \"onERC1155Received(address _operator, address _from, uint256 _id, uint256 _value, bytes32 calldata _data)\"\n                )\n            );\n    }\n}\n",
  "sourcePath": "/home/xabier/Documentos/eth-game-programming/contracts/marketplace.sol",
  "compiler": {
    "name": "solc",
    "version": "0.8.17+commit.8df45f5f.Emscripten.clang"
  },
  "schemaVersion": "3.4.10",
  "updatedAt": "2022-11-08T18:57:01.840Z",
  "devdoc": {
    "kind": "dev",
    "methods": {},
    "version": 1
  },
  "userdoc": {
    "kind": "user",
    "methods": {},
    "version": 1
  }
}